{
  "_format": "hh-sol-artifact-1",
  "contractName": "DOGToken",
  "sourceName": "contracts/test.sol",
  "abi": [
    {
      "inputs": [],
      "stateMutability": "nonpayable",
      "type": "constructor"
    },
    {
      "anonymous": false,
      "inputs": [
        {
          "indexed": true,
          "internalType": "address",
          "name": "owner",
          "type": "address"
        },
        {
          "indexed": true,
          "internalType": "address",
          "name": "approved",
          "type": "address"
        },
        {
          "indexed": true,
          "internalType": "uint256",
          "name": "tokenId",
          "type": "uint256"
        }
      ],
      "name": "Approval",
      "type": "event"
    },
    {
      "anonymous": false,
      "inputs": [
        {
          "indexed": true,
          "internalType": "address",
          "name": "owner",
          "type": "address"
        },
        {
          "indexed": true,
          "internalType": "address",
          "name": "operator",
          "type": "address"
        },
        {
          "indexed": false,
          "internalType": "bool",
          "name": "approved",
          "type": "bool"
        }
      ],
      "name": "ApprovalForAll",
      "type": "event"
    },
    {
      "anonymous": false,
      "inputs": [
        {
          "indexed": true,
          "internalType": "address",
          "name": "previousOwner",
          "type": "address"
        },
        {
          "indexed": true,
          "internalType": "address",
          "name": "newOwner",
          "type": "address"
        }
      ],
      "name": "OwnershipTransferred",
      "type": "event"
    },
    {
      "anonymous": false,
      "inputs": [
        {
          "indexed": true,
          "internalType": "address",
          "name": "from",
          "type": "address"
        },
        {
          "indexed": true,
          "internalType": "address",
          "name": "to",
          "type": "address"
        },
        {
          "indexed": true,
          "internalType": "uint256",
          "name": "tokenId",
          "type": "uint256"
        }
      ],
      "name": "Transfer",
      "type": "event"
    },
    {
      "inputs": [
        {
          "internalType": "address",
          "name": "to",
          "type": "address"
        },
        {
          "internalType": "uint256",
          "name": "tokenId",
          "type": "uint256"
        }
      ],
      "name": "approve",
      "outputs": [],
      "stateMutability": "nonpayable",
      "type": "function"
    },
    {
      "inputs": [
        {
          "internalType": "address",
          "name": "to",
          "type": "address"
        },
        {
          "internalType": "uint256",
          "name": "tokenId1",
          "type": "uint256"
        },
        {
          "internalType": "uint256",
          "name": "tokenId2",
          "type": "uint256"
        }
      ],
      "name": "approveNFTS",
      "outputs": [],
      "stateMutability": "nonpayable",
      "type": "function"
    },
    {
      "inputs": [
        {
          "internalType": "address",
          "name": "owner",
          "type": "address"
        }
      ],
      "name": "balanceOf",
      "outputs": [
        {
          "internalType": "uint256",
          "name": "",
          "type": "uint256"
        }
      ],
      "stateMutability": "view",
      "type": "function"
    },
    {
      "inputs": [
        {
          "internalType": "address",
          "name": "_receiver",
          "type": "address"
        },
        {
          "internalType": "uint256",
          "name": "_type",
          "type": "uint256"
        }
      ],
      "name": "breed",
      "outputs": [],
      "stateMutability": "payable",
      "type": "function"
    },
    {
      "inputs": [
        {
          "internalType": "uint256",
          "name": "tokenId",
          "type": "uint256"
        }
      ],
      "name": "getApproved",
      "outputs": [
        {
          "internalType": "address",
          "name": "",
          "type": "address"
        }
      ],
      "stateMutability": "view",
      "type": "function"
    },
    {
      "inputs": [],
      "name": "getBalance",
      "outputs": [
        {
          "internalType": "uint256",
          "name": "",
          "type": "uint256"
        }
      ],
      "stateMutability": "view",
      "type": "function"
    },
    {
      "inputs": [],
      "name": "getDogs",
      "outputs": [
        {
          "components": [
            {
              "internalType": "uint256",
              "name": "id",
              "type": "uint256"
            },
            {
              "internalType": "uint256",
              "name": "level",
              "type": "uint256"
            },
            {
              "internalType": "uint256",
              "name": "speed",
              "type": "uint256"
            },
            {
              "internalType": "uint256",
              "name": "beauty",
              "type": "uint256"
            },
            {
              "internalType": "uint256",
              "name": "strength",
              "type": "uint256"
            }
          ],
          "internalType": "struct DOGToken.DogInfo[]",
          "name": "",
          "type": "tuple[]"
        }
      ],
      "stateMutability": "view",
      "type": "function"
    },
    {
      "inputs": [],
      "name": "getMaxSupply",
      "outputs": [
        {
          "internalType": "uint256",
          "name": "",
          "type": "uint256"
        }
      ],
      "stateMutability": "view",
      "type": "function"
    },
    {
      "inputs": [],
      "name": "getMintPrice",
      "outputs": [
        {
          "internalType": "uint256",
          "name": "",
          "type": "uint256"
        }
      ],
      "stateMutability": "view",
      "type": "function"
    },
    {
      "inputs": [
        {
          "internalType": "uint256",
          "name": "id",
          "type": "uint256"
        }
      ],
      "name": "getinfo",
      "outputs": [
        {
          "components": [
            {
              "internalType": "uint256",
              "name": "id",
              "type": "uint256"
            },
            {
              "internalType": "uint256",
              "name": "level",
              "type": "uint256"
            },
            {
              "internalType": "uint256",
              "name": "speed",
              "type": "uint256"
            },
            {
              "internalType": "uint256",
              "name": "beauty",
              "type": "uint256"
            },
            {
              "internalType": "uint256",
              "name": "strength",
              "type": "uint256"
            }
          ],
          "internalType": "struct DOGToken.DogInfo",
          "name": "",
          "type": "tuple"
        }
      ],
      "stateMutability": "view",
      "type": "function"
    },
    {
      "inputs": [
        {
          "internalType": "uint256",
          "name": "id",
          "type": "uint256"
        }
      ],
      "name": "getlevel",
      "outputs": [
        {
          "internalType": "uint256",
          "name": "",
          "type": "uint256"
        }
      ],
      "stateMutability": "view",
      "type": "function"
    },
    {
      "inputs": [
        {
          "internalType": "address",
          "name": "owner",
          "type": "address"
        },
        {
          "internalType": "address",
          "name": "operator",
          "type": "address"
        }
      ],
      "name": "isApprovedForAll",
      "outputs": [
        {
          "internalType": "bool",
          "name": "",
          "type": "bool"
        }
      ],
      "stateMutability": "view",
      "type": "function"
    },
    {
      "inputs": [
        {
          "internalType": "uint256",
          "name": "mintamount",
          "type": "uint256"
        }
      ],
      "name": "mint",
      "outputs": [],
      "stateMutability": "payable",
      "type": "function"
    },
    {
      "inputs": [],
      "name": "name",
      "outputs": [
        {
          "internalType": "string",
          "name": "",
          "type": "string"
        }
      ],
      "stateMutability": "view",
      "type": "function"
    },
    {
      "inputs": [],
      "name": "owner",
      "outputs": [
        {
          "internalType": "address",
          "name": "",
          "type": "address"
        }
      ],
      "stateMutability": "view",
      "type": "function"
    },
    {
      "inputs": [
        {
          "internalType": "uint256",
          "name": "tokenId",
          "type": "uint256"
        }
      ],
      "name": "ownerOf",
      "outputs": [
        {
          "internalType": "address",
          "name": "",
          "type": "address"
        }
      ],
      "stateMutability": "view",
      "type": "function"
    },
    {
      "inputs": [],
      "name": "renounceOwnership",
      "outputs": [],
      "stateMutability": "nonpayable",
      "type": "function"
    },
    {
      "inputs": [
        {
          "internalType": "address",
          "name": "from",
          "type": "address"
        },
        {
          "internalType": "address",
          "name": "to",
          "type": "address"
        },
        {
          "internalType": "uint256",
          "name": "tokenId",
          "type": "uint256"
        }
      ],
      "name": "safeTransferFrom",
      "outputs": [],
      "stateMutability": "nonpayable",
      "type": "function"
    },
    {
      "inputs": [
        {
          "internalType": "address",
          "name": "from",
          "type": "address"
        },
        {
          "internalType": "address",
          "name": "to",
          "type": "address"
        },
        {
          "internalType": "uint256",
          "name": "tokenId",
          "type": "uint256"
        },
        {
          "internalType": "bytes",
          "name": "_data",
          "type": "bytes"
        }
      ],
      "name": "safeTransferFrom",
      "outputs": [],
      "stateMutability": "nonpayable",
      "type": "function"
    },
    {
      "inputs": [
        {
          "internalType": "address",
          "name": "operator",
          "type": "address"
        },
        {
          "internalType": "bool",
          "name": "approved",
          "type": "bool"
        }
      ],
      "name": "setApprovalForAll",
      "outputs": [],
      "stateMutability": "nonpayable",
      "type": "function"
    },
    {
      "inputs": [
        {
          "internalType": "uint256",
          "name": "_newmax",
          "type": "uint256"
        }
      ],
      "name": "setMaxSupply",
      "outputs": [],
      "stateMutability": "nonpayable",
      "type": "function"
    },
    {
      "inputs": [
        {
          "internalType": "address",
          "name": "_contract",
          "type": "address"
        }
      ],
      "name": "setmarketcontract",
      "outputs": [],
      "stateMutability": "nonpayable",
      "type": "function"
    },
    {
      "inputs": [
        {
          "internalType": "string",
          "name": "newURI",
          "type": "string"
        }
      ],
      "name": "setnewURI",
      "outputs": [],
      "stateMutability": "nonpayable",
      "type": "function"
    },
    {
      "inputs": [
        {
          "internalType": "bool",
          "name": "flag",
          "type": "bool"
        }
      ],
      "name": "setrented",
      "outputs": [],
      "stateMutability": "nonpayable",
      "type": "function"
    },
    {
      "inputs": [
        {
          "internalType": "address",
          "name": "_contract",
          "type": "address"
        }
      ],
      "name": "setstakingcontract",
      "outputs": [],
      "stateMutability": "nonpayable",
      "type": "function"
    },
    {
      "inputs": [
        {
          "internalType": "bytes4",
          "name": "interfaceId",
          "type": "bytes4"
        }
      ],
      "name": "supportsInterface",
      "outputs": [
        {
          "internalType": "bool",
          "name": "",
          "type": "bool"
        }
      ],
      "stateMutability": "view",
      "type": "function"
    },
    {
      "inputs": [],
      "name": "symbol",
      "outputs": [
        {
          "internalType": "string",
          "name": "",
          "type": "string"
        }
      ],
      "stateMutability": "view",
      "type": "function"
    },
    {
      "inputs": [
        {
          "internalType": "uint256",
          "name": "index",
          "type": "uint256"
        }
      ],
      "name": "tokenByIndex",
      "outputs": [
        {
          "internalType": "uint256",
          "name": "",
          "type": "uint256"
        }
      ],
      "stateMutability": "view",
      "type": "function"
    },
    {
      "inputs": [
        {
          "internalType": "address",
          "name": "owner",
          "type": "address"
        },
        {
          "internalType": "uint256",
          "name": "index",
          "type": "uint256"
        }
      ],
      "name": "tokenOfOwnerByIndex",
      "outputs": [
        {
          "internalType": "uint256",
          "name": "",
          "type": "uint256"
        }
      ],
      "stateMutability": "view",
      "type": "function"
    },
    {
      "inputs": [
        {
          "internalType": "uint256",
          "name": "tokenId",
          "type": "uint256"
        }
      ],
      "name": "tokenURI",
      "outputs": [
        {
          "internalType": "string",
          "name": "",
          "type": "string"
        }
      ],
      "stateMutability": "view",
      "type": "function"
    },
    {
      "inputs": [
        {
          "internalType": "address",
          "name": "_owner",
          "type": "address"
        }
      ],
      "name": "tokensOfOwner",
      "outputs": [
        {
          "internalType": "uint256[]",
          "name": "",
          "type": "uint256[]"
        }
      ],
      "stateMutability": "view",
      "type": "function"
    },
    {
      "inputs": [],
      "name": "totalSupply",
      "outputs": [
        {
          "internalType": "uint256",
          "name": "",
          "type": "uint256"
        }
      ],
      "stateMutability": "view",
      "type": "function"
    },
    {
      "inputs": [
        {
          "internalType": "address",
          "name": "from",
          "type": "address"
        },
        {
          "internalType": "address",
          "name": "to",
          "type": "address"
        },
        {
          "internalType": "uint256",
          "name": "tokenId",
          "type": "uint256"
        }
      ],
      "name": "transferFrom",
      "outputs": [],
      "stateMutability": "nonpayable",
      "type": "function"
    },
    {
      "inputs": [
        {
          "internalType": "address",
          "name": "newOwner",
          "type": "address"
        }
      ],
      "name": "transferOwnership",
      "outputs": [],
      "stateMutability": "nonpayable",
      "type": "function"
    },
    {
      "inputs": [
        {
          "internalType": "uint256",
          "name": "mintPrice",
          "type": "uint256"
        }
      ],
      "name": "updateMintPrice",
      "outputs": [],
      "stateMutability": "nonpayable",
      "type": "function"
    }
  ],
  "bytecode": "0x612710600b556a034f086f3b33b684000000600c55600d80546001600160a01b03191673972954f0ee7c8215ec5b76d55cb15215338f9d56179055600a6013556103a060405260b4608081815261016860a05260c082905261019060e0819052610258610100819052610118610120526101f461014081905261016082905261012c6101808190526101a08290526101c082905260786101e0526102008190526102208290526102408290526102608390526102808490526102a08290526102c08490526102e09290925261030052610320919091526103408190526103609290925261038091909152620000f9906016906019620003dc565b5060408051610320810182526000815260b4602082015261021c918101919091526102d0606082015261046060808201526106b860a08201526107d060c08201526109c460e0820152610c1c610100820152610d48610120820152610f3c6101408201526111306101608201526111a86101808201526112d46101a08201526114c86101c08201526116bc6101e0820152611914610200820152611aa4610220820152611c98610240820152611e286102608201526120806102808201526122746102a08201526124046102c08201526125306102e08201526125e4610300820152620001eb906017906019620003dc565b506040805161032081018252603c8082526050602083018190529282018190526060820181905260a06080830181905280830182905260b460c0840152606460e084018190526101008401859052610120840182905261014084018390526014610160850152610180840181905260786101a085018190526101c08501919091526101e084018390526102008401839052610220840191909152610240830184905261026083015261028082018190526102a08201526102c0810182905260286102e0820152610300810191909152620002ca90601890601962000432565b506040518060800160405280604481526020016200328e604491398051620002fb9160199160209091019062000475565b503480156200030957600080fd5b50604080518082018252600b81526a13595d18511bd9c813919560aa1b6020808301918252835180850190945260048452634d444f4760e01b908401528151919291620003599160009162000475565b5080516200036f90600190602084019062000475565b505050600062000384620003d860201b60201c565b600a80546001600160a01b0319166001600160a01b038316908117909155604051919250906000907f8be0079c531659141344cd1fd0a4f28419497f9722a3daafe3b4186f6b6457e0908290a35062000546565b3390565b82805482825590600052602060002090810192821562000420579160200282015b8281111562000420578251829061ffff16905591602001919060010190620003fd565b506200042e929150620004f2565b5090565b82805482825590600052602060002090810192821562000420579160200282015b8281111562000420578251829060ff1690559160200191906001019062000453565b828054620004839062000509565b90600052602060002090601f016020900481019282620004a7576000855562000420565b82601f10620004c257805160ff191683800117855562000420565b8280016001018555821562000420579182015b8281111562000420578251825591602001919060010190620004d5565b5b808211156200042e5760008155600101620004f3565b600181811c908216806200051e57607f821691505b602082108114156200054057634e487b7160e01b600052602260045260246000fd5b50919050565b612d3880620005566000396000f3fe6080604052600436106102035760003560e01c80636595ece011610118578063a0712d68116100a0578063c87b56dd1161006f578063c87b56dd146105e9578063cb80ed2714610609578063d015a9401461062b578063e985e9c51461063e578063f2fde38b1461068757600080fd5b8063a0712d6814610581578063a22cb46514610594578063a7f93ebd146105b4578063b88d4fde146105c957600080fd5b806380306855116100e757806380306855146104e15780638462151c146105015780638da5cb5b1461052e57806395d89b411461054c5780639bb3e0d41461056157600080fd5b80636595ece01461045f5780636f8b44b01461048c57806370a08231146104ac578063715018a6146104cc57600080fd5b806323b872dd1161019b5780634c0f38c21161016a5780634c0f38c2146103ca5780634f6ccce7146103df5780636170b9b8146103ff5780636352211e1461041f578063654a95981461043f57600080fd5b806323b872dd1461034a5780632f745c591461036a5780633bc27b5f1461038a57806342842e0e146103aa57600080fd5b8063095ea7b3116101d7578063095ea7b3146102b957806312065fe0146102d95780631564ed9a1461030557806318160ddd1461033557600080fd5b8062728e461461020857806301ffc9a71461022a57806306fdde031461025f578063081812fc14610281575b600080fd5b34801561021457600080fd5b506102286102233660046125f3565b6106a7565b005b34801561023657600080fd5b5061024a610245366004612625565b6106df565b60405190151581526020015b60405180910390f35b34801561026b57600080fd5b5061027461070a565b604051610256919061269a565b34801561028d57600080fd5b506102a161029c3660046125f3565b61079c565b6040516001600160a01b039091168152602001610256565b3480156102c557600080fd5b506102286102d43660046126c9565b610831565b3480156102e557600080fd5b50336000908152601460205260409020545b604051908152602001610256565b34801561031157600080fd5b506102f76103203660046125f3565b60009081526010602052604090206001015490565b34801561034157600080fd5b506008546102f7565b34801561035657600080fd5b506102286103653660046126f3565b610925565b34801561037657600080fd5b506102f76103853660046126c9565b610956565b34801561039657600080fd5b506102286103a536600461272f565b6109ec565b3480156103b657600080fd5b506102286103c53660046126f3565b610a38565b3480156103d657600080fd5b50600b546102f7565b3480156103eb57600080fd5b506102f76103fa3660046125f3565b610a53565b34801561040b57600080fd5b5061022861041a36600461272f565b610ae6565b34801561042b57600080fd5b506102a161043a3660046125f3565b610b32565b34801561044b57600080fd5b5061022861045a3660046127d6565b610ba9565b34801561046b57600080fd5b5061047f61047a3660046125f3565b610bea565b604051610256919061281f565b34801561049857600080fd5b506102286104a73660046125f3565b610c6b565b3480156104b857600080fd5b506102f76104c736600461272f565b610c9a565b3480156104d857600080fd5b50610228610d21565b3480156104ed57600080fd5b506102286104fc366004612858565b610d95565b34801561050d57600080fd5b5061052161051c36600461272f565b610da9565b604051610256919061288b565b34801561053a57600080fd5b50600a546001600160a01b03166102a1565b34801561055857600080fd5b50610274610e68565b34801561056d57600080fd5b5061022861057c3660046128dd565b610e77565b61022861058f3660046125f3565b610ef1565b3480156105a057600080fd5b506102286105af3660046128fa565b61129e565b3480156105c057600080fd5b50600c546102f7565b3480156105d557600080fd5b506102286105e4366004612931565b611363565b3480156105f557600080fd5b506102746106043660046125f3565b61139b565b34801561061557600080fd5b5061061e611476565b60405161025691906129ad565b6102286106393660046126c9565b611507565b34801561064a57600080fd5b5061024a610659366004612a1a565b6001600160a01b03918216600090815260056020908152604080832093909416825291909152205460ff1690565b34801561069357600080fd5b506102286106a236600461272f565b6115ea565b600a546001600160a01b031633146106da5760405162461bcd60e51b81526004016106d190612a4d565b60405180910390fd5b600c55565b60006001600160e01b0319821663780e9d6360e01b14806107045750610704826116d5565b92915050565b60606000805461071990612a82565b80601f016020809104026020016040519081016040528092919081815260200182805461074590612a82565b80156107925780601f1061076757610100808354040283529160200191610792565b820191906000526020600020905b81548152906001019060200180831161077557829003601f168201915b5050505050905090565b6000818152600260205260408120546001600160a01b03166108155760405162461bcd60e51b815260206004820152602c60248201527f4552433732313a20617070726f76656420717565727920666f72206e6f6e657860448201526b34b9ba32b73a103a37b5b2b760a11b60648201526084016106d1565b506000908152600460205260409020546001600160a01b031690565b600061083c82610b32565b9050806001600160a01b0316836001600160a01b031614156108aa5760405162461bcd60e51b815260206004820152602160248201527f4552433732313a20617070726f76616c20746f2063757272656e74206f776e656044820152603960f91b60648201526084016106d1565b600e546001600160a01b03848116911614610916573360009081526011602052604090205460ff16156109165760405162461bcd60e51b8152602060048201526014602482015273151a1a5cc81d1bdad95b881a5cc81c995b9d195960621b60448201526064016106d1565b6109208383611725565b505050565b61092f3382611793565b61094b5760405162461bcd60e51b81526004016106d190612ab7565b61092083838361188a565b600061096183610c9a565b82106109c35760405162461bcd60e51b815260206004820152602b60248201527f455243373231456e756d657261626c653a206f776e657220696e646578206f7560448201526a74206f6620626f756e647360a81b60648201526084016106d1565b506001600160a01b03919091166000908152600660209081526040808320938352929052205490565b600a546001600160a01b03163314610a165760405162461bcd60e51b81526004016106d190612a4d565b600e80546001600160a01b0319166001600160a01b0392909216919091179055565b61092083838360405180602001604052806000815250611363565b6000610a5e60085490565b8210610ac15760405162461bcd60e51b815260206004820152602c60248201527f455243373231456e756d657261626c653a20676c6f62616c20696e646578206f60448201526b7574206f6620626f756e647360a01b60648201526084016106d1565b60088281548110610ad457610ad4612b08565b90600052602060002001549050919050565b600a546001600160a01b03163314610b105760405162461bcd60e51b81526004016106d190612a4d565b600f80546001600160a01b0319166001600160a01b0392909216919091179055565b6000818152600260205260408120546001600160a01b0316806107045760405162461bcd60e51b815260206004820152602960248201527f4552433732313a206f776e657220717565727920666f72206e6f6e657869737460448201526832b73a103a37b5b2b760b91b60648201526084016106d1565b600a546001600160a01b03163314610bd35760405162461bcd60e51b81526004016106d190612a4d565b8051610be690601990602084019061255a565b5050565b610c1c6040518060a0016040528060008152602001600081526020016000815260200160008152602001600081525090565b50600090815260106020908152604091829020825160a0810184528154815260018201549281019290925260028101549282019290925260038201546060820152600490910154608082015290565b600a546001600160a01b03163314610c955760405162461bcd60e51b81526004016106d190612a4d565b600b55565b60006001600160a01b038216610d055760405162461bcd60e51b815260206004820152602a60248201527f4552433732313a2062616c616e636520717565727920666f7220746865207a65604482015269726f206164647265737360b01b60648201526084016106d1565b506001600160a01b031660009081526003602052604090205490565b600a546001600160a01b03163314610d4b5760405162461bcd60e51b81526004016106d190612a4d565b600a546040516000916001600160a01b0316907f8be0079c531659141344cd1fd0a4f28419497f9722a3daafe3b4186f6b6457e0908390a3600a80546001600160a01b0319169055565b610d9f8383610831565b6109208382610831565b60606000610db683610c9a565b905080610dd75760408051600080825260208201909252905b509392505050565b60008167ffffffffffffffff811115610df257610df261274a565b604051908082528060200260200182016040528015610e1b578160200160208202803683370190505b50905060005b82811015610dcf57610e338582610956565b828281518110610e4557610e45612b08565b602090810291909101015280610e5a81612b34565b915050610e21565b50919050565b60606001805461071990612a82565b600f546001600160a01b03163314610ed15760405162461bcd60e51b815260206004820152601c60248201527f796f752063616e27742063616c6c20746869732066756e6374696f6e0000000060448201526064016106d1565b336000908152601160205260409020805460ff1916911515919091179055565b600081118015610f0357506013548111155b610f595760405162461bcd60e51b815260206004820152602160248201527f43616e206f6e6c79206d696e7420313020746f6b656e7320617420612074696d6044820152606560f81b60648201526084016106d1565b80600c54610f679190612b4f565b600d546040516370a0823160e01b81523360048201526001600160a01b03909116906370a0823190602401602060405180830381865afa158015610faf573d6000803e3d6000fd5b505050506040513d601f19601f82011682018060405250810190610fd39190612b6e565b10156110125760405162461bcd60e51b815260206004820152600e60248201526d125b9d985b1a5908105b5bdd5b9d60921b60448201526064016106d1565b600d54600c546001600160a01b03909116906323b872dd9033903090611039908690612b4f565b6040516001600160e01b031960e086901b1681526001600160a01b03938416600482015292909116602483015260448201526064016020604051808303816000875af115801561108d573d6000803e3d6000fd5b505050506040513d601f19601f820116820180604052508101906110b19190612b87565b5060008167ffffffffffffffff8111156110cd576110cd61274a565b6040519080825280602002602001820160405280156110f6578160200160208202803683370190505b50905061110282611895565b905060015b8281116111435761113182828151811061112357611123612b08565b6020026020010151336119e6565b8061113b81612b34565b915050611107565b503360009081526014602052604081208054849290611163908490612ba4565b9091555050600d54600c546001600160a01b039091169063095ea7b390309061118d908690612b4f565b6040516001600160e01b031960e085901b1681526001600160a01b03909216600483015260248201526044016020604051808303816000875af11580156111d8573d6000803e3d6000fd5b505050506040513d601f19601f820116820180604052508101906111fc9190612b87565b50600d54600c546001600160a01b03909116906323b872dd90309061dead90611226908790612b4f565b6040516001600160e01b031960e086901b1681526001600160a01b03938416600482015292909116602483015260448201526064016020604051808303816000875af115801561127a573d6000803e3d6000fd5b505050506040513d601f19601f820116820180604052508101906109209190612b87565b6001600160a01b0382163314156112f75760405162461bcd60e51b815260206004820152601960248201527f4552433732313a20617070726f766520746f2063616c6c65720000000000000060448201526064016106d1565b3360008181526005602090815260408083206001600160a01b03871680855290835292819020805460ff191686151590811790915590519081529192917f17307eab39ab6107e8899845ad3d59bd9653f200f220920489ca2b5937696c31910160405180910390a35050565b61136d3383611793565b6113895760405162461bcd60e51b81526004016106d190612ab7565b61139584848484611cd8565b50505050565b6000818152600260205260409020546060906001600160a01b031661141a5760405162461bcd60e51b815260206004820152602f60248201527f4552433732314d657461646174613a2055524920717565727920666f72206e6f60448201526e3732bc34b9ba32b73a103a37b5b2b760891b60648201526084016106d1565b6000611424611d0b565b90506000815111611444576040518060200160405280600081525061146f565b8061144e84611d1a565b60405160200161145f929190612bbc565b6040516020818303038152906040525b9392505050565b60606012805480602002602001604051908101604052809291908181526020016000905b828210156114fe57838290600052602060002090600502016040518060a0016040529081600082015481526020016001820154815260200160028201548152602001600382015481526020016004820154815250508152602001906001019061149a565b50505050905090565b600e546001600160a01b031633146115615760405162461bcd60e51b815260206004820152601c60248201527f796f752063616e27742063616c6c20746869732066756e6374696f6e0000000060448201526064016106d1565b6016818154811061157457611574612b08565b90600052602060002001546015600083815260200190815260200160002054106115e05760405162461bcd60e51b815260206004820152601760248201527f796f752063616e2774206d696e7420616e79206d6f726500000000000000000060448201526064016106d1565b610be681836119e6565b600a546001600160a01b031633146116145760405162461bcd60e51b81526004016106d190612a4d565b6001600160a01b0381166116795760405162461bcd60e51b815260206004820152602660248201527f4f776e61626c653a206e6577206f776e657220697320746865207a65726f206160448201526564647265737360d01b60648201526084016106d1565b600a546040516001600160a01b038084169216907f8be0079c531659141344cd1fd0a4f28419497f9722a3daafe3b4186f6b6457e090600090a3600a80546001600160a01b0319166001600160a01b0392909216919091179055565b60006001600160e01b031982166380ac58cd60e01b148061170657506001600160e01b03198216635b5e139f60e01b145b8061070457506301ffc9a760e01b6001600160e01b0319831614610704565b600081815260046020526040902080546001600160a01b0319166001600160a01b038416908117909155819061175a82610b32565b6001600160a01b03167f8c5be1e5ebec7d5bd14f71427d1e84f3dd0314c0f7b2291e5b200ac8c7c3b92560405160405180910390a45050565b6000818152600260205260408120546001600160a01b031661180c5760405162461bcd60e51b815260206004820152602c60248201527f4552433732313a206f70657261746f7220717565727920666f72206e6f6e657860448201526b34b9ba32b73a103a37b5b2b760a11b60648201526084016106d1565b600061181783610b32565b9050806001600160a01b0316846001600160a01b031614806118525750836001600160a01b03166118478461079c565b6001600160a01b0316145b8061188257506001600160a01b0380821660009081526005602090815260408083209388168352929052205460ff165b949350505050565b610920838383611e18565b606060008267ffffffffffffffff8111156118b2576118b261274a565b6040519080825280602002602001820160405280156118db578160200160208202803683370190505b50905060005b838110156119df576000600a6118f5611fc3565b60408051602081019290925281018490526060016040516020818303038152906040528051906020012060001c61192c9190612c01565b90505b6018818154811061194257611942612b08565b90600052602060002001546015600083815260200190815260200160002054106119ae57600a611970611fc3565b60408051602081019290925281018390526060016040516020818303038152906040528051906020012060001c6119a79190612c01565b905061192f565b808383815181106119c1576119c1612b08565b602090810291909101015250806119d781612b34565b9150506118e1565b5092915050565b601682815481106119f9576119f9612b08565b9060005260206000200154601560008481526020019081526020016000205410611a655760405162461bcd60e51b815260206004820152601760248201527f596f752063616e2774206d696e7420616e79206d6f726500000000000000000060448201526064016106d1565b600060178381548110611a7a57611a7a612b08565b90600052602060002001546015600085815260200190815260200160002054611aa39190612ba4565b60408051600480825260a082019092529192506000919060208201608080368337019050509050611ad38261200b565b9050611b076040518060a0016040528060008152602001600081526020016000815260200160008152602001600081525090565b82815281600081518110611b1d57611b1d612b08565b6020908102919091018101519082015281600181518110611b4057611b40612b08565b6020908102919091010151604082015281600281518110611b6357611b63612b08565b6020908102919091010151606082015281600381518110611b8657611b86612b08565b602090810291909101810151608083019081526000858152601083526040808220855181559385018051600180870191909155918601805160028701556060870180516003880155855160049097019690965560128054938401815590935285517fbb8a6a4669ba250d26cd7a459eca9d215f8307e33aebe50379bc5a3617ec3444600590930292830155517fbb8a6a4669ba250d26cd7a459eca9d215f8307e33aebe50379bc5a3617ec344582015590517fbb8a6a4669ba250d26cd7a459eca9d215f8307e33aebe50379bc5a3617ec344682015591517fbb8a6a4669ba250d26cd7a459eca9d215f8307e33aebe50379bc5a3617ec3447830155517fbb8a6a4669ba250d26cd7a459eca9d215f8307e33aebe50379bc5a3617ec344890910155611cb284846120c6565b6000858152601560205260408120805491611ccc83612b34565b91905055505050505050565b611ce384848461188a565b611cef84848484612214565b6113955760405162461bcd60e51b81526004016106d190612c15565b60606019805461071990612a82565b606081611d3e5750506040805180820190915260018152600360fc1b602082015290565b8160005b8115611d685780611d5281612b34565b9150611d619050600a83612c67565b9150611d42565b60008167ffffffffffffffff811115611d8357611d8361274a565b6040519080825280601f01601f191660200182016040528015611dad576020820181803683370190505b5090505b841561188257611dc2600183612c7b565b9150611dcf600a86612c01565b611dda906030612ba4565b60f81b818381518110611def57611def612b08565b60200101906001600160f81b031916908160001a905350611e11600a86612c67565b9450611db1565b826001600160a01b0316611e2b82610b32565b6001600160a01b031614611e935760405162461bcd60e51b815260206004820152602960248201527f4552433732313a207472616e73666572206f6620746f6b656e2074686174206960448201526839903737ba1037bbb760b91b60648201526084016106d1565b6001600160a01b038216611ef55760405162461bcd60e51b8152602060048201526024808201527f4552433732313a207472616e7366657220746f20746865207a65726f206164646044820152637265737360e01b60648201526084016106d1565b611f00838383612312565b611f0b600082611725565b6001600160a01b0383166000908152600360205260408120805460019290611f34908490612c7b565b90915550506001600160a01b0382166000908152600360205260408120805460019290611f62908490612ba4565b909155505060008181526002602052604080822080546001600160a01b0319166001600160a01b0386811691821790925591518493918716917fddf252ad1be2c89b69c2b068fc378daa952ba7f163c4a11628f55a4df523b3ef91a4505050565b6000600a4442604051602001611fe3929190918252602082015260400190565b6040516020818303038152906040528051906020012060001c6120069190612c01565b905090565b60408051600480825260a08201909252606091600091906020820160808036833701905050905060005b60048110156119df576000600a61204a611fc3565b6040805160208101929092528101849052606081018790526080016040516020818303038152906040528051906020012060001c6120889190612c01565b612093906001612ba4565b9050808383815181106120a8576120a8612b08565b602090810291909101015250806120be81612b34565b915050612035565b6001600160a01b03821661211c5760405162461bcd60e51b815260206004820181905260248201527f4552433732313a206d696e7420746f20746865207a65726f206164647265737360448201526064016106d1565b6000818152600260205260409020546001600160a01b0316156121815760405162461bcd60e51b815260206004820152601c60248201527f4552433732313a20746f6b656e20616c7265616479206d696e7465640000000060448201526064016106d1565b61218d60008383612312565b6001600160a01b03821660009081526003602052604081208054600192906121b6908490612ba4565b909155505060008181526002602052604080822080546001600160a01b0319166001600160a01b03861690811790915590518392907fddf252ad1be2c89b69c2b068fc378daa952ba7f163c4a11628f55a4df523b3ef908290a45050565b60006001600160a01b0384163b1561230757604051630a85bd0160e11b81526001600160a01b0385169063150b7a0290612258903390899088908890600401612c92565b6020604051808303816000875af1925050508015612293575060408051601f3d908101601f1916820190925261229091810190612ccf565b60015b6122ed573d8080156122c1576040519150601f19603f3d011682016040523d82523d6000602084013e6122c6565b606091505b5080516122e55760405162461bcd60e51b81526004016106d190612c15565b805181602001fd5b6001600160e01b031916630a85bd0160e11b149050611882565b506001949350505050565b6001600160a01b03831661236d5761236881600880546000838152600960205260408120829055600182018355919091527ff3f7a9fe364faab93b216da50a3214154f22a0a2b415b23a84c8169e8b636ee30155565b612390565b816001600160a01b0316836001600160a01b0316146123905761239083826123ca565b6001600160a01b0382166123a75761092081612467565b826001600160a01b0316826001600160a01b031614610920576109208282612516565b600060016123d784610c9a565b6123e19190612c7b565b600083815260076020526040902054909150808214612434576001600160a01b03841660009081526006602090815260408083208584528252808320548484528184208190558352600790915290208190555b5060009182526007602090815260408084208490556001600160a01b039094168352600681528383209183525290812055565b60085460009061247990600190612c7b565b600083815260096020526040812054600880549394509092849081106124a1576124a1612b08565b9060005260206000200154905080600883815481106124c2576124c2612b08565b60009182526020808320909101929092558281526009909152604080822084905585825281205560088054806124fa576124fa612cec565b6001900381819060005260206000200160009055905550505050565b600061252183610c9a565b6001600160a01b039093166000908152600660209081526040808320868452825280832085905593825260079052919091209190915550565b82805461256690612a82565b90600052602060002090601f01602090048101928261258857600085556125ce565b82601f106125a157805160ff19168380011785556125ce565b828001600101855582156125ce579182015b828111156125ce5782518255916020019190600101906125b3565b506125da9291506125de565b5090565b5b808211156125da57600081556001016125df565b60006020828403121561260557600080fd5b5035919050565b6001600160e01b03198116811461262257600080fd5b50565b60006020828403121561263757600080fd5b813561146f8161260c565b60005b8381101561265d578181015183820152602001612645565b838111156113955750506000910152565b60008151808452612686816020860160208601612642565b601f01601f19169290920160200192915050565b60208152600061146f602083018461266e565b80356001600160a01b03811681146126c457600080fd5b919050565b600080604083850312156126dc57600080fd5b6126e5836126ad565b946020939093013593505050565b60008060006060848603121561270857600080fd5b612711846126ad565b925061271f602085016126ad565b9150604084013590509250925092565b60006020828403121561274157600080fd5b61146f826126ad565b634e487b7160e01b600052604160045260246000fd5b600067ffffffffffffffff8084111561277b5761277b61274a565b604051601f8501601f19908116603f011681019082821181831017156127a3576127a361274a565b816040528093508581528686860111156127bc57600080fd5b858560208301376000602087830101525050509392505050565b6000602082840312156127e857600080fd5b813567ffffffffffffffff8111156127ff57600080fd5b8201601f8101841361281057600080fd5b61188284823560208401612760565b60a08101610704828480518252602081015160208301526040810151604083015260608101516060830152608081015160808301525050565b60008060006060848603121561286d57600080fd5b612876846126ad565b95602085013595506040909401359392505050565b6020808252825182820181905260009190848201906040850190845b818110156128c3578351835292840192918401916001016128a7565b50909695505050505050565b801515811461262257600080fd5b6000602082840312156128ef57600080fd5b813561146f816128cf565b6000806040838503121561290d57600080fd5b612916836126ad565b91506020830135612926816128cf565b809150509250929050565b6000806000806080858703121561294757600080fd5b612950856126ad565b935061295e602086016126ad565b925060408501359150606085013567ffffffffffffffff81111561298157600080fd5b8501601f8101871361299257600080fd5b6129a187823560208401612760565b91505092959194509250565b6020808252825182820181905260009190848201906040850190845b818110156128c357612a0783855180518252602081015160208301526040810151604083015260608101516060830152608081015160808301525050565b9284019260a092909201916001016129c9565b60008060408385031215612a2d57600080fd5b612a36836126ad565b9150612a44602084016126ad565b90509250929050565b6020808252818101527f4f776e61626c653a2063616c6c6572206973206e6f7420746865206f776e6572604082015260600190565b600181811c90821680612a9657607f821691505b60208210811415610e6257634e487b7160e01b600052602260045260246000fd5b60208082526031908201527f4552433732313a207472616e736665722063616c6c6572206973206e6f74206f6040820152701ddb995c881b9bdc88185c1c1c9bdd9959607a1b606082015260800190565b634e487b7160e01b600052603260045260246000fd5b634e487b7160e01b600052601160045260246000fd5b6000600019821415612b4857612b48612b1e565b5060010190565b6000816000190483118215151615612b6957612b69612b1e565b500290565b600060208284031215612b8057600080fd5b5051919050565b600060208284031215612b9957600080fd5b815161146f816128cf565b60008219821115612bb757612bb7612b1e565b500190565b60008351612bce818460208801612642565b835190830190612be2818360208801612642565b01949350505050565b634e487b7160e01b600052601260045260246000fd5b600082612c1057612c10612beb565b500690565b60208082526032908201527f4552433732313a207472616e7366657220746f206e6f6e20455243373231526560408201527131b2b4bb32b91034b6b83632b6b2b73a32b960711b606082015260800190565b600082612c7657612c76612beb565b500490565b600082821015612c8d57612c8d612b1e565b500390565b6001600160a01b0385811682528416602082015260408101839052608060608201819052600090612cc59083018461266e565b9695505050505050565b600060208284031215612ce157600080fd5b815161146f8161260c565b634e487b7160e01b600052603160045260246000fdfea264697066735822122067ebca37ee958ae18c81a5f2c29da74b4d714f5f93383b6bb6e6607b445590cb64736f6c634300080a003368747470733a2f2f697066732e696f2f697066732f516d5a4e52796d335850735670473777356b4c7563704353394352434861454c3250636e3872446e6a78477a58762f",
  "linkReferences": {},
  "deployedLinkReferences": {}
}