{
  "_format": "hh-sol-artifact-1",
  "contractName": "MetaDog",
  "sourceName": "contracts/bep20.sol",
  "abi": [
    {
      "inputs": [],
      "stateMutability": "nonpayable",
      "type": "constructor"
    },
    {
      "anonymous": false,
      "inputs": [
        {
          "indexed": true,
          "internalType": "address",
          "name": "owner",
          "type": "address"
        },
        {
          "indexed": true,
          "internalType": "address",
          "name": "spender",
          "type": "address"
        },
        {
          "indexed": false,
          "internalType": "uint256",
          "name": "value",
          "type": "uint256"
        }
      ],
      "name": "Approval",
      "type": "event"
    },
    {
      "anonymous": false,
      "inputs": [
        {
          "indexed": false,
          "internalType": "uint256",
          "name": "forLiquidity",
          "type": "uint256"
        },
        {
          "indexed": false,
          "internalType": "uint256",
          "name": "forMarketing",
          "type": "uint256"
        }
      ],
      "name": "CalculatedBNBForEachRecipient",
      "type": "event"
    },
    {
      "anonymous": false,
      "inputs": [
        {
          "indexed": false,
          "internalType": "address",
          "name": "msgSender",
          "type": "address"
        }
      ],
      "name": "ErrorInProcess",
      "type": "event"
    },
    {
      "anonymous": false,
      "inputs": [
        {
          "indexed": false,
          "internalType": "uint256",
          "name": "BNBswapped",
          "type": "uint256"
        }
      ],
      "name": "FinishSwapTokensForEth",
      "type": "event"
    },
    {
      "anonymous": false,
      "inputs": [
        {
          "indexed": true,
          "internalType": "address",
          "name": "previousOwner",
          "type": "address"
        },
        {
          "indexed": true,
          "internalType": "address",
          "name": "newOwner",
          "type": "address"
        }
      ],
      "name": "OwnershipTransferred",
      "type": "event"
    },
    {
      "anonymous": false,
      "inputs": [
        {
          "indexed": false,
          "internalType": "uint256",
          "name": "oldLiquidityFee",
          "type": "uint256"
        },
        {
          "indexed": false,
          "internalType": "uint256",
          "name": "newLiquidityFee",
          "type": "uint256"
        },
        {
          "indexed": false,
          "internalType": "uint256",
          "name": "oldMarketingFee",
          "type": "uint256"
        },
        {
          "indexed": false,
          "internalType": "uint256",
          "name": "newMarketingFee",
          "type": "uint256"
        }
      ],
      "name": "SetFees",
      "type": "event"
    },
    {
      "anonymous": false,
      "inputs": [
        {
          "indexed": false,
          "internalType": "uint256",
          "name": "oldPercent",
          "type": "uint256"
        },
        {
          "indexed": false,
          "internalType": "uint256",
          "name": "newPercent",
          "type": "uint256"
        }
      ],
      "name": "SetMaxHoldingAmount",
      "type": "event"
    },
    {
      "anonymous": false,
      "inputs": [
        {
          "indexed": false,
          "internalType": "uint256",
          "name": "oldAmount",
          "type": "uint256"
        },
        {
          "indexed": false,
          "internalType": "uint256",
          "name": "newAmount",
          "type": "uint256"
        }
      ],
      "name": "SetSwapTokensAtAmount",
      "type": "event"
    },
    {
      "anonymous": false,
      "inputs": [
        {
          "indexed": false,
          "internalType": "uint256",
          "name": "tokensToBeSwapped",
          "type": "uint256"
        }
      ],
      "name": "StartSwapTokensForEth",
      "type": "event"
    },
    {
      "anonymous": false,
      "inputs": [
        {
          "indexed": false,
          "internalType": "uint256",
          "name": "tokensSwapped",
          "type": "uint256"
        },
        {
          "indexed": false,
          "internalType": "uint256",
          "name": "amount",
          "type": "uint256"
        },
        {
          "indexed": false,
          "internalType": "string",
          "name": "to",
          "type": "string"
        }
      ],
      "name": "SwapAndSendTo",
      "type": "event"
    },
    {
      "anonymous": false,
      "inputs": [
        {
          "indexed": true,
          "internalType": "address",
          "name": "from",
          "type": "address"
        },
        {
          "indexed": true,
          "internalType": "address",
          "name": "to",
          "type": "address"
        },
        {
          "indexed": false,
          "internalType": "uint256",
          "name": "value",
          "type": "uint256"
        }
      ],
      "name": "Transfer",
      "type": "event"
    },
    {
      "inputs": [],
      "name": "BNB_liquidityFee",
      "outputs": [
        {
          "internalType": "uint256",
          "name": "",
          "type": "uint256"
        }
      ],
      "stateMutability": "view",
      "type": "function"
    },
    {
      "inputs": [],
      "name": "MDOG_liquidityFee",
      "outputs": [
        {
          "internalType": "uint256",
          "name": "",
          "type": "uint256"
        }
      ],
      "stateMutability": "view",
      "type": "function"
    },
    {
      "inputs": [],
      "name": "accLiquidityFee",
      "outputs": [
        {
          "internalType": "uint256",
          "name": "",
          "type": "uint256"
        }
      ],
      "stateMutability": "view",
      "type": "function"
    },
    {
      "inputs": [],
      "name": "accMarketingFee",
      "outputs": [
        {
          "internalType": "uint256",
          "name": "",
          "type": "uint256"
        }
      ],
      "stateMutability": "view",
      "type": "function"
    },
    {
      "inputs": [
        {
          "internalType": "address",
          "name": "owner",
          "type": "address"
        },
        {
          "internalType": "address",
          "name": "spender",
          "type": "address"
        }
      ],
      "name": "allowance",
      "outputs": [
        {
          "internalType": "uint256",
          "name": "",
          "type": "uint256"
        }
      ],
      "stateMutability": "view",
      "type": "function"
    },
    {
      "inputs": [
        {
          "internalType": "address",
          "name": "spender",
          "type": "address"
        },
        {
          "internalType": "uint256",
          "name": "amount",
          "type": "uint256"
        }
      ],
      "name": "approve",
      "outputs": [
        {
          "internalType": "bool",
          "name": "",
          "type": "bool"
        }
      ],
      "stateMutability": "nonpayable",
      "type": "function"
    },
    {
      "inputs": [
        {
          "internalType": "address",
          "name": "account",
          "type": "address"
        }
      ],
      "name": "balanceOf",
      "outputs": [
        {
          "internalType": "uint256",
          "name": "",
          "type": "uint256"
        }
      ],
      "stateMutability": "view",
      "type": "function"
    },
    {
      "inputs": [],
      "name": "decimals",
      "outputs": [
        {
          "internalType": "uint8",
          "name": "",
          "type": "uint8"
        }
      ],
      "stateMutability": "view",
      "type": "function"
    },
    {
      "inputs": [
        {
          "internalType": "address",
          "name": "_address",
          "type": "address"
        },
        {
          "internalType": "bool",
          "name": "status",
          "type": "bool"
        }
      ],
      "name": "excludeAddressFromAllLimits",
      "outputs": [],
      "stateMutability": "nonpayable",
      "type": "function"
    },
    {
      "inputs": [
        {
          "internalType": "address[]",
          "name": "addresses",
          "type": "address[]"
        },
        {
          "internalType": "bool[]",
          "name": "statuses",
          "type": "bool[]"
        }
      ],
      "name": "excludeAddressesFromAllLimits",
      "outputs": [],
      "stateMutability": "nonpayable",
      "type": "function"
    },
    {
      "inputs": [
        {
          "internalType": "address",
          "name": "_address",
          "type": "address"
        },
        {
          "internalType": "bool",
          "name": "status",
          "type": "bool"
        }
      ],
      "name": "excludeFromFees",
      "outputs": [],
      "stateMutability": "nonpayable",
      "type": "function"
    },
    {
      "inputs": [
        {
          "internalType": "address",
          "name": "_address",
          "type": "address"
        },
        {
          "internalType": "bool",
          "name": "status",
          "type": "bool"
        }
      ],
      "name": "excludeFromMaxHoldLimit",
      "outputs": [],
      "stateMutability": "nonpayable",
      "type": "function"
    },
    {
      "inputs": [],
      "name": "getOwner",
      "outputs": [
        {
          "internalType": "address",
          "name": "",
          "type": "address"
        }
      ],
      "stateMutability": "view",
      "type": "function"
    },
    {
      "inputs": [
        {
          "internalType": "address",
          "name": "_address",
          "type": "address"
        }
      ],
      "name": "isExcludedFromFees",
      "outputs": [
        {
          "internalType": "bool",
          "name": "",
          "type": "bool"
        }
      ],
      "stateMutability": "view",
      "type": "function"
    },
    {
      "inputs": [
        {
          "internalType": "address",
          "name": "_address",
          "type": "address"
        }
      ],
      "name": "isExcludedFromMaxHoldLimit",
      "outputs": [
        {
          "internalType": "bool",
          "name": "",
          "type": "bool"
        }
      ],
      "stateMutability": "view",
      "type": "function"
    },
    {
      "inputs": [],
      "name": "liquidityFee",
      "outputs": [
        {
          "internalType": "uint256",
          "name": "",
          "type": "uint256"
        }
      ],
      "stateMutability": "view",
      "type": "function"
    },
    {
      "inputs": [],
      "name": "marketingFee",
      "outputs": [
        {
          "internalType": "uint256",
          "name": "",
          "type": "uint256"
        }
      ],
      "stateMutability": "view",
      "type": "function"
    },
    {
      "inputs": [],
      "name": "marketingWallet",
      "outputs": [
        {
          "internalType": "address",
          "name": "",
          "type": "address"
        }
      ],
      "stateMutability": "view",
      "type": "function"
    },
    {
      "inputs": [],
      "name": "maxHoldingAmount",
      "outputs": [
        {
          "internalType": "uint256",
          "name": "",
          "type": "uint256"
        }
      ],
      "stateMutability": "view",
      "type": "function"
    },
    {
      "inputs": [],
      "name": "name",
      "outputs": [
        {
          "internalType": "string",
          "name": "",
          "type": "string"
        }
      ],
      "stateMutability": "view",
      "type": "function"
    },
    {
      "inputs": [],
      "name": "owner",
      "outputs": [
        {
          "internalType": "address",
          "name": "",
          "type": "address"
        }
      ],
      "stateMutability": "view",
      "type": "function"
    },
    {
      "inputs": [],
      "name": "pancakePair",
      "outputs": [
        {
          "internalType": "address",
          "name": "",
          "type": "address"
        }
      ],
      "stateMutability": "view",
      "type": "function"
    },
    {
      "inputs": [],
      "name": "pancakeRouter",
      "outputs": [
        {
          "internalType": "contract IPancakeRouter02",
          "name": "",
          "type": "address"
        }
      ],
      "stateMutability": "view",
      "type": "function"
    },
    {
      "inputs": [
        {
          "internalType": "uint256",
          "name": "newLiquidityFee",
          "type": "uint256"
        },
        {
          "internalType": "uint256",
          "name": "newMarketingFee",
          "type": "uint256"
        }
      ],
      "name": "setFees",
      "outputs": [],
      "stateMutability": "nonpayable",
      "type": "function"
    },
    {
      "inputs": [
        {
          "internalType": "address",
          "name": "newAddress",
          "type": "address"
        }
      ],
      "name": "setMarketingAddress",
      "outputs": [],
      "stateMutability": "nonpayable",
      "type": "function"
    },
    {
      "inputs": [
        {
          "internalType": "uint256",
          "name": "amount",
          "type": "uint256"
        }
      ],
      "name": "setMaxHoldingAmount",
      "outputs": [],
      "stateMutability": "nonpayable",
      "type": "function"
    },
    {
      "inputs": [
        {
          "internalType": "uint256",
          "name": "amount",
          "type": "uint256"
        }
      ],
      "name": "setSwapTokensAtAmount",
      "outputs": [],
      "stateMutability": "nonpayable",
      "type": "function"
    },
    {
      "inputs": [],
      "name": "swapTokensAtAmount",
      "outputs": [
        {
          "internalType": "uint256",
          "name": "",
          "type": "uint256"
        }
      ],
      "stateMutability": "view",
      "type": "function"
    },
    {
      "inputs": [],
      "name": "symbol",
      "outputs": [
        {
          "internalType": "string",
          "name": "",
          "type": "string"
        }
      ],
      "stateMutability": "view",
      "type": "function"
    },
    {
      "inputs": [],
      "name": "totalSupply",
      "outputs": [
        {
          "internalType": "uint256",
          "name": "",
          "type": "uint256"
        }
      ],
      "stateMutability": "view",
      "type": "function"
    },
    {
      "inputs": [
        {
          "internalType": "address",
          "name": "recipient",
          "type": "address"
        },
        {
          "internalType": "uint256",
          "name": "amount",
          "type": "uint256"
        }
      ],
      "name": "transfer",
      "outputs": [
        {
          "internalType": "bool",
          "name": "",
          "type": "bool"
        }
      ],
      "stateMutability": "nonpayable",
      "type": "function"
    },
    {
      "inputs": [
        {
          "internalType": "address",
          "name": "sender",
          "type": "address"
        },
        {
          "internalType": "address",
          "name": "recipient",
          "type": "address"
        },
        {
          "internalType": "uint256",
          "name": "amount",
          "type": "uint256"
        }
      ],
      "name": "transferFrom",
      "outputs": [
        {
          "internalType": "bool",
          "name": "",
          "type": "bool"
        }
      ],
      "stateMutability": "nonpayable",
      "type": "function"
    },
    {
      "inputs": [
        {
          "internalType": "address",
          "name": "newOwner",
          "type": "address"
        }
      ],
      "name": "transferOwnership",
      "outputs": [],
      "stateMutability": "nonpayable",
      "type": "function"
    },
    {
      "inputs": [
        {
          "internalType": "address",
          "name": "newAddress",
          "type": "address"
        }
      ],
      "name": "updatePancakeRouter",
      "outputs": [],
      "stateMutability": "nonpayable",
      "type": "function"
    },
    {
      "stateMutability": "payable",
      "type": "receive"
    }
  ],
  "bytecode": "0x60806040523480156200001157600080fd5b50604051806040016040528060078152602001664d657461446f6760c81b815250604051806040016040528060048152602001634d444f4760e01b81525062000069620000636200019260201b60201c565b62000196565b81516200007e90600590602085019062000639565b5080516200009490600490602084019062000639565b50506000600e819055600d5550620000af6012600a620007f4565b620000bf906308f0d1806200080c565b6009556000600f819055601055620000eb620000e36000546001600160a01b031690565b6001620001e6565b620000f8306001620001e6565b60085462000111906001600160a01b03166001620001e6565b6200014d620001286000546001600160a01b031690565b620001366012600a620007f4565b620001479064174876e8006200080c565b62000251565b6200017e6127106200015e60035490565b6200016c906101f46200080c565b6200017891906200082e565b62000336565b6200018c6101f48062000422565b620008a9565b3390565b600080546001600160a01b038381166001600160a01b0319831681178455604051919092169283917f8be0079c531659141344cd1fd0a4f28419497f9722a3daafe3b4186f6b6457e09190a35050565b6000546001600160a01b03163314620002355760405162461bcd60e51b81526020600482018190526024820152600080516020620028fb83398151915260448201526064015b60405180910390fd5b6200024182826200054d565b6200024d8282620005c3565b5050565b6001600160a01b038216620002a95760405162461bcd60e51b815260206004820152601f60248201527f42455032303a206d696e7420746f20746865207a65726f20616464726573730060448201526064016200022c565b8060036000828254620002bd919062000851565b90915550506001600160a01b03821660009081526001602052604081208054839290620002ec90849062000851565b90915550506040518181526001600160a01b038316906000907fddf252ad1be2c89b69c2b068fc378daa952ba7f163c4a11628f55a4df523b3ef9060200160405180910390a35050565b6000546001600160a01b03163314620003815760405162461bcd60e51b81526020600482018190526024820152600080516020620028fb83398151915260448201526064016200022c565b60008111620003e15760405162461bcd60e51b815260206004820152602560248201527f4d657461446f673a2076616c7565206d75737420626520627265617465722074604482015264068616e20360dc1b60648201526084016200022c565b600a5460408051918252602082018390527f07f18198a6bd795f760394511384deaa38d0cedebc5e937c0f1e6127718f30d7910160405180910390a1600a55565b6000546001600160a01b031633146200046d5760405162461bcd60e51b81526020600482018190526024820152600080516020620028fb83398151915260448201526064016200022c565b60646200047e612710600a6200080c565b6200048a91906200082e565b62000496828462000851565b1115620004f75760405162461bcd60e51b815260206004820152602860248201527f4d657461446f673a2073756d206f662066656573206d757374206e6f74206578604482015267636565642031302560c01b60648201526084016200022c565b600c54600b546040805192835260208301859052820152606081018290527f747eaccb30a9769474f1620ae0dd833b1ffb89520dcac6833b33df942b7c0c499060800160405180910390a1600c91909155600b55565b6000546001600160a01b03163314620005985760405162461bcd60e51b81526020600482018190526024820152600080516020620028fb83398151915260448201526064016200022c565b6001600160a01b03919091166000908152601160205260409020805460ff1916911515919091179055565b6000546001600160a01b031633146200060e5760405162461bcd60e51b81526020600482018190526024820152600080516020620028fb83398151915260448201526064016200022c565b6001600160a01b03919091166000908152601260205260409020805460ff1916911515919091179055565b82805462000647906200086c565b90600052602060002090601f0160209004810192826200066b5760008555620006b6565b82601f106200068657805160ff1916838001178555620006b6565b82800160010185558215620006b6579182015b82811115620006b657825182559160200191906001019062000699565b50620006c4929150620006c8565b5090565b5b80821115620006c45760008155600101620006c9565b634e487b7160e01b600052601160045260246000fd5b600181815b80851115620007365781600019048211156200071a576200071a620006df565b808516156200072857918102915b93841c9390800290620006fa565b509250929050565b6000826200074f57506001620007ee565b816200075e57506000620007ee565b81600181146200077757600281146200078257620007a2565b6001915050620007ee565b60ff841115620007965762000796620006df565b50506001821b620007ee565b5060208310610133831016604e8410600b8410161715620007c7575081810a620007ee565b620007d38383620006f5565b8060001904821115620007ea57620007ea620006df565b0290505b92915050565b60006200080560ff8416836200073e565b9392505050565b6000816000190483118215151615620008295762000829620006df565b500290565b6000826200084c57634e487b7160e01b600052601260045260246000fd5b500490565b60008219821115620008675762000867620006df565b500190565b600181811c908216806200088157607f821691505b60208210811415620008a357634e487b7160e01b600052602260045260246000fd5b50919050565b61204280620008b96000396000f3fe6080604052600436106101fc5760003560e01c80638da5cb5b1161010d578063b8c9d25c116100a0578063d880cd851161006f578063d880cd85146105b3578063dd62ed3e146105d3578063e011246114610619578063e2f456051461062f578063f2fde38b1461064557600080fd5b8063b8c9d25c14610533578063bded89fb14610553578063c024666814610573578063c21ebd071461059357600080fd5b806398118cb4116100dc57806398118cb4146104bd5780639dc32e2f146104d3578063a9059cbb146104f3578063afa4f3b21461051357600080fd5b80638da5cb5b1461043e578063906e9dd01461047257806395d89b4114610492578063970a25dd146104a757600080fd5b80633594dea31161019057806370a082311161015f57806370a08231146103ba578063757f76f3146103f057806375f0a87414610406578063893d20e81461043e57806389f9a1d31461045c57600080fd5b80633594dea314610335578063412eaabc146103555780634fbee1931461036b5780636b67c4df146103a457600080fd5b80630b78f9c0116101cc5780630b78f9c0146102ba57806318160ddd146102da57806323b872dd146102f9578063313ce5671461031957600080fd5b80629cb0e91461020857806306fdde0314610256578063086810d714610278578063095ea7b31461029a57600080fd5b3661020357005b600080fd5b34801561021457600080fd5b50610241610223366004611a26565b6001600160a01b031660009081526012602052604090205460ff1690565b60405190151581526020015b60405180910390f35b34801561026257600080fd5b5061026b610665565b60405161024d9190611a4a565b34801561028457600080fd5b50610298610293366004611ab4565b6106f7565b005b3480156102a657600080fd5b506102416102b5366004611ae9565b610742565b3480156102c657600080fd5b506102986102d5366004611b15565b610758565b3480156102e657600080fd5b506003545b60405190815260200161024d565b34801561030557600080fd5b50610241610314366004611b37565b61085a565b34801561032557600080fd5b506040516012815260200161024d565b34801561034157600080fd5b50610298610350366004611ab4565b61090b565b34801561036157600080fd5b506102eb600d5481565b34801561037757600080fd5b50610241610386366004611a26565b6001600160a01b031660009081526011602052604090205460ff1690565b3480156103b057600080fd5b506102eb600b5481565b3480156103c657600080fd5b506102eb6103d5366004611a26565b6001600160a01b031660009081526001602052604090205490565b3480156103fc57600080fd5b506102eb60105481565b34801561041257600080fd5b50600854610426906001600160a01b031681565b6040516001600160a01b03909116815260200161024d565b34801561044a57600080fd5b506000546001600160a01b0316610426565b34801561046857600080fd5b506102eb600a5481565b34801561047e57600080fd5b5061029861048d366004611a26565b610960565b34801561049e57600080fd5b5061026b610a1f565b3480156104b357600080fd5b506102eb600f5481565b3480156104c957600080fd5b506102eb600c5481565b3480156104df57600080fd5b506102986104ee366004611bc4565b610a2e565b3480156104ff57600080fd5b5061024161050e366004611ae9565b610b26565b34801561051f57600080fd5b5061029861052e366004611c30565b610b33565b34801561053f57600080fd5b50600754610426906001600160a01b031681565b34801561055f57600080fd5b5061029861056e366004611c30565b610b9e565b34801561057f57600080fd5b5061029861058e366004611ab4565b610c67565b34801561059f57600080fd5b50600654610426906001600160a01b031681565b3480156105bf57600080fd5b506102986105ce366004611a26565b610cbc565b3480156105df57600080fd5b506102eb6105ee366004611c49565b6001600160a01b03918216600090815260026020908152604080832093909416825291909152205490565b34801561062557600080fd5b506102eb600e5481565b34801561063b57600080fd5b506102eb60095481565b34801561065157600080fd5b50610298610660366004611a26565b610f85565b60606005805461067490611c82565b80601f01602080910402602001604051908101604052809291908181526020018280546106a090611c82565b80156106ed5780601f106106c2576101008083540402835291602001916106ed565b820191906000526020600020905b8154815290600101906020018083116106d057829003601f168201915b5050505050905090565b6000546001600160a01b0316331461072a5760405162461bcd60e51b815260040161072190611cbd565b60405180910390fd5b6107348282610c67565b61073e828261090b565b5050565b600061074f338484611020565b50600192915050565b6000546001600160a01b031633146107825760405162461bcd60e51b815260040161072190611cbd565b6064610791612710600a611d08565b61079b9190611d27565b6107a58284611d49565b11156108045760405162461bcd60e51b815260206004820152602860248201527f4d657461446f673a2073756d206f662066656573206d757374206e6f74206578604482015267636565642031302560c01b6064820152608401610721565b600c54600b546040805192835260208301859052820152606081018290527f747eaccb30a9769474f1620ae0dd833b1ffb89520dcac6833b33df942b7c0c499060800160405180910390a1600c91909155600b55565b6001600160a01b038316600090815260026020908152604080832033845290915281205460001981146108f557828110156108e85760405162461bcd60e51b815260206004820152602860248201527f42455032303a207472616e7366657220616d6f756e74206578636565647320616044820152676c6c6f77616e636560c01b6064820152608401610721565b6108f58533858403611020565b610900858585611144565b506001949350505050565b6000546001600160a01b031633146109355760405162461bcd60e51b815260040161072190611cbd565b6001600160a01b03919091166000908152601260205260409020805460ff1916911515919091179055565b6000546001600160a01b0316331461098a5760405162461bcd60e51b815260040161072190611cbd565b6001600160a01b0381166109fd5760405162461bcd60e51b815260206004820152603460248201527f4d657461446f673a206d61726b6574696e672077616c6c65742063616e6e6f7460448201527320626520746865206e756c6c206164647265737360601b6064820152608401610721565b600880546001600160a01b0319166001600160a01b0392909216919091179055565b60606004805461067490611c82565b6000546001600160a01b03163314610a585760405162461bcd60e51b815260040161072190611cbd565b828114610ab15760405162461bcd60e51b815260206004820152602160248201527f4d657461446f673a20696e76616c696420696e70757420706172616d657465726044820152607360f81b6064820152608401610721565b60005b83811015610b1f57610b0d858583818110610ad157610ad1611d61565b9050602002016020810190610ae69190611a26565b848484818110610af857610af8611d61565b90506020020160208101906102939190611d77565b80610b1781611d92565b915050610ab4565b5050505050565b600061074f338484611144565b6000546001600160a01b03163314610b5d5760405162461bcd60e51b815260040161072190611cbd565b60095460408051918252602082018390527f190dc7c30bc62ef30e35c5f5512ad715a1bd03230f2d89c965249246c8d8ecca910160405180910390a1600955565b6000546001600160a01b03163314610bc85760405162461bcd60e51b815260040161072190611cbd565b60008111610c265760405162461bcd60e51b815260206004820152602560248201527f4d657461446f673a2076616c7565206d75737420626520627265617465722074604482015264068616e20360dc1b6064820152608401610721565b600a5460408051918252602082018390527f07f18198a6bd795f760394511384deaa38d0cedebc5e937c0f1e6127718f30d7910160405180910390a1600a55565b6000546001600160a01b03163314610c915760405162461bcd60e51b815260040161072190611cbd565b6001600160a01b03919091166000908152601160205260409020805460ff1916911515919091179055565b6000546001600160a01b03163314610ce65760405162461bcd60e51b815260040161072190611cbd565b6001600160a01b038116610d4f5760405162461bcd60e51b815260206004820152602a60248201527f4d657461446f673a20726f757465722063616e6e6f7420626520746865206e756044820152696c6c206164647265737360b01b6064820152608401610721565b6006546001600160a01b0382811691161415610dbe5760405162461bcd60e51b815260206004820152602860248201527f4d657461446f673a2063616e6e6f742075706461746520746f207468652073616044820152676d652076616c756560c01b6064820152608401610721565b600680546001600160a01b0319166001600160a01b0383169081179091556040805163c45a015560e01b8152905163c45a0155916004808201926020929091908290030181865afa158015610e17573d6000803e3d6000fd5b505050506040513d601f19601f82011682018060405250810190610e3b9190611dad565b6001600160a01b031663c9c6539630600660009054906101000a90046001600160a01b03166001600160a01b031663ad5c46486040518163ffffffff1660e01b8152600401602060405180830381865afa158015610e9d573d6000803e3d6000fd5b505050506040513d601f19601f82011682018060405250810190610ec19190611dad565b6040516001600160e01b031960e085901b1681526001600160a01b039283166004820152911660248201526044016020604051808303816000875af1158015610f0e573d6000803e3d6000fd5b505050506040513d601f19601f82011682018060405250810190610f329190611dad565b600780546001600160a01b0319166001600160a01b0392909216919091179055610f5d8160016106f7565b506007546001600160a01b03166000908152601260205260409020805460ff19166001179055565b6000546001600160a01b03163314610faf5760405162461bcd60e51b815260040161072190611cbd565b6001600160a01b0381166110145760405162461bcd60e51b815260206004820152602660248201527f4f776e61626c653a206e6577206f776e657220697320746865207a65726f206160448201526564647265737360d01b6064820152608401610721565b61101d816113b8565b50565b6001600160a01b0383166110825760405162461bcd60e51b8152602060048201526024808201527f42455032303a20617070726f76652066726f6d20746865207a65726f206164646044820152637265737360e01b6064820152608401610721565b6001600160a01b0382166110e35760405162461bcd60e51b815260206004820152602260248201527f42455032303a20617070726f766520746f20746865207a65726f206164647265604482015261737360f01b6064820152608401610721565b6001600160a01b0383811660008181526002602090815260408083209487168084529482529182902085905590518481527f8c5be1e5ebec7d5bd14f71427d1e84f3dd0314c0f7b2291e5b200ac8c7c3b925910160405180910390a3505050565b8061115a5761115583836000611408565b505050565b6001600160a01b0383166111805760405162461bcd60e51b815260040161072190611dca565b6001600160a01b0382166111a65760405162461bcd60e51b815260040161072190611e0f565b600954306000908152600160205260409020541080159081906111d35750600654600160a01b900460ff16155b80156111ea57506007546001600160a01b03163314155b15611228576006805460ff60a01b1916600160a01b179055600d54600e5461121a9161121591611d49565b61155d565b6006805460ff60a01b191690555b6001600160a01b03841660009081526011602052604081205460ff168061126757506001600160a01b03841660009081526011602052604090205460ff165b61127e57600654600160a01b900460ff1615611281565b60005b90508015611312576000612710600c548561129c9190611d08565b6112a69190611d27565b90506000612710600b54866112bb9190611d08565b6112c59190611d27565b905081600e546112d59190611d49565b600e55600d546112e6908290611d49565b600d5560006112f58284611d49565b90506113018187611e52565b955061130e883083611408565b5050505b6001600160a01b03841660009081526012602052604090205460ff166113ad57600a5483611355866001600160a01b031660009081526001602052604090205490565b61135f9190611d49565b11156113ad5760405162461bcd60e51b815260206004820181905260248201527f4d657461446f673a2073757270617373656420686f6c64696e67206c696d69746044820152606401610721565b610b1f858585611408565b600080546001600160a01b038381166001600160a01b0319831681178455604051919092169283917f8be0079c531659141344cd1fd0a4f28419497f9722a3daafe3b4186f6b6457e09190a35050565b6001600160a01b03831661142e5760405162461bcd60e51b815260040161072190611dca565b6001600160a01b0382166114545760405162461bcd60e51b815260040161072190611e0f565b6001600160a01b038316600090815260016020526040902054818110156114cc5760405162461bcd60e51b815260206004820152602660248201527f42455032303a207472616e7366657220616d6f756e7420657863656564732062604482015265616c616e636560d01b6064820152608401610721565b6001600160a01b03808516600090815260016020526040808220858503905591851681529081208054849290611503908490611d49565b92505081905550826001600160a01b0316846001600160a01b03167fddf252ad1be2c89b69c2b068fc378daa952ba7f163c4a11628f55a4df523b3ef8460405161154f91815260200190565b60405180910390a350505050565b611566816116bc565b600e54600d54479160009161157b9190611d49565b9050600081600d548461158e9190611d08565b6115989190611d27565b9050600082600e54856115ab9190611d08565b6115b59190611d27565b60408051828152602081018590529192507f2f751f1a0ee63b9a63820f687b686f0bc4336b1fee8897280d5b2edc9da8c897910160405180910390a16008546040516000916001600160a01b03169084908381818185875af1925050503d806000811461163e576040519150601f19603f3d011682016040523d82523d6000602084013e611643565b606091505b5050905080156116af57600d5460408051918252602082018590526060828201819052600990830152684d41524b4554494e4760b81b6080830152517fb0496abac68756d71a8197a35281274b24ef743ec90b4111621eaaabb1e2d0119181900360a00190a16000600d555b50506000600e5550505050565b6040518181527f4ec548c733e604b4a7a7097e329bf97981b29a0a3a1d8a3ed609b3f3603c50fa9060200160405180910390a1604080516002808252606082018352600092602083019080368337019050509050308160008151811061172457611724611d61565b6001600160a01b03928316602091820292909201810191909152600654604080516315ab88c960e31b81529051919093169263ad5c46489260048083019391928290030181865afa15801561177d573d6000803e3d6000fd5b505050506040513d601f19601f820116820180604052508101906117a19190611dad565b816001815181106117b4576117b4611d61565b6001600160a01b0392831660209182029290920101526006546117da9130911684611020565b60006002600e546117eb9190611d27565b60065460405163d06ca61f60e01b81529192506000916001600160a01b039091169063d06ca61f906118239085908790600401611ec3565b600060405180830381865afa158015611840573d6000803e3d6000fd5b505050506040513d6000823e601f3d908101601f191682016040526118689190810190611ee4565b90508060008151811061187d5761187d611d61565b60200260200101516010819055508060018151811061189e5761189e611d61565b6020908102919091010151600f556006546001600160a01b031663791ac9476118c78487611e52565b60008630426040518663ffffffff1660e01b81526004016118ec959493929190611fa2565b600060405180830381600087803b15801561190657600080fd5b505af115801561191a573d6000803e3d6000fd5b505060065483516001600160a01b03909116925063f305d71991508390600190811061194857611948611d61565b60209081029190910101516040516001600160e01b031960e084901b168152306004820181905260248201879052600060448301819052606483015260848201524260a482015260c40160606040518083038185885af11580156119b0573d6000803e3d6000fd5b50505050506040513d601f19601f820116820180604052508101906119d59190611fde565b50506040514781527f18f9217bd756ce5f125fd65c3c43a197667b28455af5cd235235cf23600ac8e9915060200160405180910390a150505050565b6001600160a01b038116811461101d57600080fd5b600060208284031215611a3857600080fd5b8135611a4381611a11565b9392505050565b600060208083528351808285015260005b81811015611a7757858101830151858201604001528201611a5b565b81811115611a89576000604083870101525b50601f01601f1916929092016040019392505050565b80358015158114611aaf57600080fd5b919050565b60008060408385031215611ac757600080fd5b8235611ad281611a11565b9150611ae060208401611a9f565b90509250929050565b60008060408385031215611afc57600080fd5b8235611b0781611a11565b946020939093013593505050565b60008060408385031215611b2857600080fd5b50508035926020909101359150565b600080600060608486031215611b4c57600080fd5b8335611b5781611a11565b92506020840135611b6781611a11565b929592945050506040919091013590565b60008083601f840112611b8a57600080fd5b50813567ffffffffffffffff811115611ba257600080fd5b6020830191508360208260051b8501011115611bbd57600080fd5b9250929050565b60008060008060408587031215611bda57600080fd5b843567ffffffffffffffff80821115611bf257600080fd5b611bfe88838901611b78565b90965094506020870135915080821115611c1757600080fd5b50611c2487828801611b78565b95989497509550505050565b600060208284031215611c4257600080fd5b5035919050565b60008060408385031215611c5c57600080fd5b8235611c6781611a11565b91506020830135611c7781611a11565b809150509250929050565b600181811c90821680611c9657607f821691505b60208210811415611cb757634e487b7160e01b600052602260045260246000fd5b50919050565b6020808252818101527f4f776e61626c653a2063616c6c6572206973206e6f7420746865206f776e6572604082015260600190565b634e487b7160e01b600052601160045260246000fd5b6000816000190483118215151615611d2257611d22611cf2565b500290565b600082611d4457634e487b7160e01b600052601260045260246000fd5b500490565b60008219821115611d5c57611d5c611cf2565b500190565b634e487b7160e01b600052603260045260246000fd5b600060208284031215611d8957600080fd5b611a4382611a9f565b6000600019821415611da657611da6611cf2565b5060010190565b600060208284031215611dbf57600080fd5b8151611a4381611a11565b60208082526025908201527f42455032303a207472616e736665722066726f6d20746865207a65726f206164604082015264647265737360d81b606082015260800190565b60208082526023908201527f42455032303a207472616e7366657220746f20746865207a65726f206164647260408201526265737360e81b606082015260800190565b600082821015611e6457611e64611cf2565b500390565b634e487b7160e01b600052604160045260246000fd5b600081518084526020808501945080840160005b83811015611eb85781516001600160a01b031687529582019590820190600101611e93565b509495945050505050565b828152604060208201526000611edc6040830184611e7f565b949350505050565b60006020808385031215611ef757600080fd5b825167ffffffffffffffff80821115611f0f57600080fd5b818501915085601f830112611f2357600080fd5b815181811115611f3557611f35611e69565b8060051b604051601f19603f83011681018181108582111715611f5a57611f5a611e69565b604052918252848201925083810185019188831115611f7857600080fd5b938501935b82851015611f9657845184529385019392850192611f7d565b98975050505050505050565b85815284602082015260a060408201526000611fc160a0830186611e7f565b6001600160a01b0394909416606083015250608001529392505050565b600080600060608486031215611ff357600080fd5b835192506020840151915060408401519050925092509256fea2646970667358221220a42f8a60f44e31fb5a4f3986200dc34db00be35720f38b61581275d8e0966de464736f6c634300080a00334f776e61626c653a2063616c6c6572206973206e6f7420746865206f776e6572",
  "linkReferences": {},
  "deployedLinkReferences": {}
}